{
  "_format": "hh-sol-artifact-1",
  "contractName": "Token",
  "sourceName": "contracts/token.sol",
  "abi": [
    {
      "inputs": [],
      "stateMutability": "nonpayable",
      "type": "constructor"
    },
    {
      "inputs": [
        {
          "internalType": "address",
          "name": "verifier",
          "type": "address"
        },
        {
          "internalType": "string",
          "name": "cid",
          "type": "string"
        },
        {
          "internalType": "string",
          "name": "id",
          "type": "string"
        },
        {
          "internalType": "string",
          "name": "name",
          "type": "string"
        },
        {
          "internalType": "string",
          "name": "sex",
          "type": "string"
        },
        {
          "internalType": "string",
          "name": "dob",
          "type": "string"
        },
        {
          "internalType": "uint256",
          "name": "mobile",
          "type": "uint256"
        },
        {
          "internalType": "string",
          "name": "email",
          "type": "string"
        },
        {
          "internalType": "string",
          "name": "college",
          "type": "string"
        },
        {
          "internalType": "int256",
          "name": "isOver18",
          "type": "int256"
        },
        {
          "internalType": "int256",
          "name": "isCollegeStudent",
          "type": "int256"
        }
      ],
      "name": "addVReq",
      "outputs": [],
      "stateMutability": "nonpayable",
      "type": "function"
    },
    {
      "inputs": [
        {
          "internalType": "string",
          "name": "verifier",
          "type": "string"
        }
      ],
      "name": "getVerifierAddress",
      "outputs": [
        {
          "internalType": "string",
          "name": "verifierAddress",
          "type": "string"
        }
      ],
      "stateMutability": "view",
      "type": "function"
    },
    {
      "inputs": [
        {
          "internalType": "string",
          "name": "verifierAddress",
          "type": "string"
        }
      ],
      "name": "getVerifierName",
      "outputs": [
        {
          "internalType": "string",
          "name": "verifierName",
          "type": "string"
        }
      ],
      "stateMutability": "view",
      "type": "function"
    },
    {
      "inputs": [
        {
          "internalType": "address",
          "name": "org",
          "type": "address"
        },
        {
          "internalType": "bool",
          "name": "name",
          "type": "bool"
        },
        {
          "internalType": "bool",
          "name": "sex",
          "type": "bool"
        },
        {
          "internalType": "bool",
          "name": "dob",
          "type": "bool"
        },
        {
          "internalType": "bool",
          "name": "mobile",
          "type": "bool"
        },
        {
          "internalType": "bool",
          "name": "email",
          "type": "bool"
        },
        {
          "internalType": "bool",
          "name": "college",
          "type": "bool"
        },
        {
          "internalType": "bool",
          "name": "isOver18",
          "type": "bool"
        },
        {
          "internalType": "bool",
          "name": "isCollegeStudent",
          "type": "bool"
        }
      ],
      "name": "giveAccess",
      "outputs": [],
      "stateMutability": "nonpayable",
      "type": "function"
    },
    {
      "inputs": [],
      "name": "showUserInfo",
      "outputs": [
        {
          "internalType": "string",
          "name": "name",
          "type": "string"
        },
        {
          "internalType": "string",
          "name": "sex",
          "type": "string"
        },
        {
          "internalType": "string",
          "name": "dob",
          "type": "string"
        },
        {
          "internalType": "uint256",
          "name": "mobile",
          "type": "uint256"
        },
        {
          "internalType": "string",
          "name": "email",
          "type": "string"
        },
        {
          "internalType": "string",
          "name": "college",
          "type": "string"
        },
        {
          "internalType": "int256",
          "name": "isOver18",
          "type": "int256"
        },
        {
          "internalType": "int256",
          "name": "isCollegeStudent",
          "type": "int256"
        }
      ],
      "stateMutability": "view",
      "type": "function"
    },
    {
      "inputs": [
        {
          "internalType": "address",
          "name": "user",
          "type": "address"
        }
      ],
      "name": "showUserInfoBoolsByOrg",
      "outputs": [
        {
          "internalType": "int256",
          "name": "isOver18",
          "type": "int256"
        },
        {
          "internalType": "int256",
          "name": "isCollegeStudent",
          "type": "int256"
        }
      ],
      "stateMutability": "view",
      "type": "function"
    },
    {
      "inputs": [
        {
          "internalType": "address",
          "name": "user",
          "type": "address"
        }
      ],
      "name": "showUserInfoByOrg",
      "outputs": [
        {
          "internalType": "string",
          "name": "name",
          "type": "string"
        },
        {
          "internalType": "string",
          "name": "sex",
          "type": "string"
        },
        {
          "internalType": "string",
          "name": "dob",
          "type": "string"
        },
        {
          "internalType": "uint256",
          "name": "mobile",
          "type": "uint256"
        },
        {
          "internalType": "string",
          "name": "email",
          "type": "string"
        },
        {
          "internalType": "string",
          "name": "college",
          "type": "string"
        }
      ],
      "stateMutability": "view",
      "type": "function"
    },
    {
      "inputs": [
        {
          "internalType": "uint256",
          "name": "index",
          "type": "uint256"
        }
      ],
      "name": "showUserVerificationReqList",
      "outputs": [
        {
          "internalType": "address",
          "name": "verifier",
          "type": "address"
        },
        {
          "internalType": "int256",
          "name": "status",
          "type": "int256"
        }
      ],
      "stateMutability": "view",
      "type": "function"
    },
    {
      "inputs": [],
      "name": "showUserVerificationReqListLength",
      "outputs": [
        {
          "internalType": "uint256",
          "name": "",
          "type": "uint256"
        }
      ],
      "stateMutability": "view",
      "type": "function"
    },
    {
      "inputs": [
        {
          "internalType": "uint256",
          "name": "index",
          "type": "uint256"
        }
      ],
      "name": "showVerifierVerificationReqList",
      "outputs": [
        {
          "internalType": "string",
          "name": "cid",
          "type": "string"
        },
        {
          "internalType": "string",
          "name": "id",
          "type": "string"
        },
        {
          "internalType": "address",
          "name": "user",
          "type": "address"
        },
        {
          "internalType": "int256",
          "name": "status",
          "type": "int256"
        },
        {
          "internalType": "uint256",
          "name": "metaIndex",
          "type": "uint256"
        }
      ],
      "stateMutability": "view",
      "type": "function"
    },
    {
      "inputs": [],
      "name": "showVerifierVerificationReqListLength",
      "outputs": [
        {
          "internalType": "uint256",
          "name": "",
          "type": "uint256"
        }
      ],
      "stateMutability": "view",
      "type": "function"
    },
    {
      "inputs": [
        {
          "internalType": "uint256",
          "name": "index",
          "type": "uint256"
        }
      ],
      "name": "showVerifierVerificationReqScopeBoolsList",
      "outputs": [
        {
          "internalType": "int256",
          "name": "isOver18",
          "type": "int256"
        },
        {
          "internalType": "int256",
          "name": "isCollegeStudent",
          "type": "int256"
        }
      ],
      "stateMutability": "view",
      "type": "function"
    },
    {
      "inputs": [
        {
          "internalType": "uint256",
          "name": "index",
          "type": "uint256"
        }
      ],
      "name": "showVerifierVerificationReqScopeList",
      "outputs": [
        {
          "internalType": "string",
          "name": "name",
          "type": "string"
        },
        {
          "internalType": "string",
          "name": "sex",
          "type": "string"
        },
        {
          "internalType": "string",
          "name": "dob",
          "type": "string"
        },
        {
          "internalType": "uint256",
          "name": "mobile",
          "type": "uint256"
        },
        {
          "internalType": "string",
          "name": "email",
          "type": "string"
        },
        {
          "internalType": "string",
          "name": "college",
          "type": "string"
        }
      ],
      "stateMutability": "view",
      "type": "function"
    },
    {
      "inputs": [
        {
          "internalType": "address",
          "name": "user",
          "type": "address"
        },
        {
          "internalType": "uint256",
          "name": "index",
          "type": "uint256"
        },
        {
          "internalType": "bool",
          "name": "decision",
          "type": "bool"
        }
      ],
      "name": "verifyReq",
      "outputs": [],
      "stateMutability": "nonpayable",
      "type": "function"
    }
  ],
  "bytecode": "0x608060405234801561001057600080fd5b50336000806101000a81548173ffffffffffffffffffffffffffffffffffffffff021916908373ffffffffffffffffffffffffffffffffffffffff1602179055506040518060400160405280600381526020017f52544f00000000000000000000000000000000000000000000000000000000008152506005604051610095906102b6565b908152602001604051809103902090816100af919061051b565b506040518060600160405280602a815260200161501d602a913960066040516100d790610639565b908152602001604051809103902090816100f1919061051b565b506040518060400160405280600781526020017f4d4e4e49542041000000000000000000000000000000000000000000000000008152506005604051610136906106c0565b90815260200160405180910390209081610150919061051b565b506040518060600160405280602a8152602001614ff3602a9139600660405161017890610721565b90815260200160405180910390209081610192919061051b565b506040518060400160405280600581526020017f554944414900000000000000000000000000000000000000000000000000000081525060056040516101d7906107a8565b908152602001604051809103902090816101f1919061051b565b506040518060600160405280602a8152602001615047602a9139600660405161021990610809565b90815260200160405180910390209081610233919061051b565b5061081e565b600081905092915050565b7f307832373531306432376230423563386338313341383933373236446345414260008201527f3661393333333435646100000000000000000000000000000000000000000000602082015250565b60006102a0602a83610239565b91506102ab82610244565b602a82019050919050565b60006102c182610293565b9150819050919050565b600081519050919050565b7f4e487b7100000000000000000000000000000000000000000000000000000000600052604160045260246000fd5b7f4e487b7100000000000000000000000000000000000000000000000000000000600052602260045260246000fd5b6000600282049050600182168061034c57607f821691505b60208210810361035f5761035e610305565b5b50919050565b60008190508160005260206000209050919050565b60006020601f8301049050919050565b600082821b905092915050565b6000600883026103c77fffffffffffffffffffffffffffffffffffffffffffffffffffffffffffffffff8261038a565b6103d1868361038a565b95508019841693508086168417925050509392505050565b6000819050919050565b6000819050919050565b600061041861041361040e846103e9565b6103f3565b6103e9565b9050919050565b6000819050919050565b610432836103fd565b61044661043e8261041f565b848454610397565b825550505050565b600090565b61045b61044e565b610466818484610429565b505050565b5b8181101561048a5761047f600082610453565b60018101905061046c565b5050565b601f8211156104cf576104a081610365565b6104a98461037a565b810160208510156104b8578190505b6104cc6104c48561037a565b83018261046b565b50505b505050565b600082821c905092915050565b60006104f2600019846008026104d4565b1980831691505092915050565b600061050b83836104e1565b9150826002028217905092915050565b610524826102cb565b67ffffffffffffffff81111561053d5761053c6102d6565b5b6105478254610334565b61055282828561048e565b600060209050601f8311600181146105855760008415610573578287015190505b61057d85826104ff565b8655506105e5565b601f19841661059386610365565b60005b828110156105bb57848901518255600182019150602085019450602081019050610596565b868310156105d857848901516105d4601f8916826104e1565b8355505b6001600288020188555050505b505050505050565b7f52544f0000000000000000000000000000000000000000000000000000000000600082015250565b6000610623600383610239565b915061062e826105ed565b600382019050919050565b600061064482610616565b9150819050919050565b7f307866346239343939393137343064653463303930383531303539656266396460008201527f3938356662343662623300000000000000000000000000000000000000000000602082015250565b60006106aa602a83610239565b91506106b58261064e565b602a82019050919050565b60006106cb8261069d565b9150819050919050565b7f4d4e4e4954204100000000000000000000000000000000000000000000000000600082015250565b600061070b600783610239565b9150610716826106d5565b600782019050919050565b600061072c826106fe565b9150819050919050565b7f307862396637326566346330663064333036613662313265336438363962653160008201527f6338613132366630616500000000000000000000000000000000000000000000602082015250565b6000610792602a83610239565b915061079d82610736565b602a82019050919050565b60006107b382610785565b9150819050919050565b7f5549444149000000000000000000000000000000000000000000000000000000600082015250565b60006107f3600583610239565b91506107fe826107bd565b600582019050919050565b6000610814826107e6565b9150819050919050565b6147c68061082d6000396000f3fe608060405234801561001057600080fd5b50600436106100e95760003560e01c8063869a2d001161008c578063b3c122bf11610066578063b3c122bf1461027d578063b6c34474146102ae578063e7ce19b5146102ca578063f9817fc2146102ff576100e9565b8063869a2d001461020f57806392c9cc391461022d578063973dacf614610261576100e9565b806325d08e25116100c857806325d08e2514610180578063547fa8691461019c5780635e0243e6146101c15780637a5f040e146101df576100e9565b806297a913146100ee578063161a8a151461011f57806324a2699514610150575b600080fd5b61010860048036038101906101039190613a97565b610334565b604051610116929190613add565b60405180910390f35b61013960048036038101906101349190613a97565b61040c565b604051610147929190613b47565b60405180910390f35b61016a60048036038101906101659190613cb6565b6104fe565b6040516101779190613d7e565b60405180910390f35b61019a60048036038101906101959190613e04565b6105ae565b005b6101a461161e565b6040516101b8989796959493929190613e66565b60405180910390f35b6101c9611b14565b6040516101d69190613f07565b60405180910390f35b6101f960048036038101906101f49190613cb6565b611b5e565b6040516102069190613d7e565b60405180910390f35b610217611c0e565b6040516102249190613f07565b60405180910390f35b61024760048036038101906102429190613a97565b611c58565b604051610258959493929190613f22565b60405180910390f35b61027b60048036038101906102769190613faf565b611f98565b005b61029760048036038101906102929190614167565b6122d3565b6040516102a5929190613add565b60405180910390f35b6102c860048036038101906102c39190614194565b6123df565b005b6102e460048036038101906102df9190614167565b612f3d565b6040516102f69695949392919061425e565b60405180910390f35b61031960048036038101906103149190613a97565b613513565b60405161032b9695949392919061425e565b60405180910390f35b600080600260003373ffffffffffffffffffffffffffffffffffffffff1673ffffffffffffffffffffffffffffffffffffffff1681526020019081526020016000208381548110610388576103876142e2565b5b90600052602060002090600d020160030160060154600260003373ffffffffffffffffffffffffffffffffffffffff1673ffffffffffffffffffffffffffffffffffffffff16815260200190815260200160002084815481106103ee576103ed6142e2565b5b90600052602060002090600d02016003016007015491509150915091565b600080600360003373ffffffffffffffffffffffffffffffffffffffff1673ffffffffffffffffffffffffffffffffffffffff16815260200190815260200160002083815481106104605761045f6142e2565b5b906000526020600020906002020160000160009054906101000a900473ffffffffffffffffffffffffffffffffffffffff16600360003373ffffffffffffffffffffffffffffffffffffffff1673ffffffffffffffffffffffffffffffffffffffff16815260200190815260200160002084815481106104e3576104e26142e2565b5b90600052602060002090600202016001015491509150915091565b6060600682604051610510919061434d565b9081526020016040518091039020805461052990614393565b80601f016020809104026020016040519081016040528092919081815260200182805461055590614393565b80156105a25780601f10610577576101008083540402835291602001916105a2565b820191906000526020600020905b81548152906001019060200180831161058557829003601f168201915b50505050509050919050565b8015611055576000600260008573ffffffffffffffffffffffffffffffffffffffff1673ffffffffffffffffffffffffffffffffffffffff1681526020019081526020016000208381548110610607576106066142e2565b5b90600052602060002090600d02016040518060c001604052908160008201805461063090614393565b80601f016020809104026020016040519081016040528092919081815260200182805461065c90614393565b80156106a95780601f1061067e576101008083540402835291602001916106a9565b820191906000526020600020905b81548152906001019060200180831161068c57829003601f168201915b505050505081526020016001820180546106c290614393565b80601f01602080910402602001604051908101604052809291908181526020018280546106ee90614393565b801561073b5780601f106107105761010080835404028352916020019161073b565b820191906000526020600020905b81548152906001019060200180831161071e57829003601f168201915b505050505081526020016002820160009054906101000a900473ffffffffffffffffffffffffffffffffffffffff1673ffffffffffffffffffffffffffffffffffffffff1673ffffffffffffffffffffffffffffffffffffffff16815260200160038201604051806101000160405290816000820180546107bb90614393565b80601f01602080910402602001604051908101604052809291908181526020018280546107e790614393565b80156108345780601f1061080957610100808354040283529160200191610834565b820191906000526020600020905b81548152906001019060200180831161081757829003601f168201915b5050505050815260200160018201805461084d90614393565b80601f016020809104026020016040519081016040528092919081815260200182805461087990614393565b80156108c65780601f1061089b576101008083540402835291602001916108c6565b820191906000526020600020905b8154815290600101906020018083116108a957829003601f168201915b505050505081526020016002820180546108df90614393565b80601f016020809104026020016040519081016040528092919081815260200182805461090b90614393565b80156109585780601f1061092d57610100808354040283529160200191610958565b820191906000526020600020905b81548152906001019060200180831161093b57829003601f168201915b505050505081526020016003820154815260200160048201805461097b90614393565b80601f01602080910402602001604051908101604052809291908181526020018280546109a790614393565b80156109f45780601f106109c9576101008083540402835291602001916109f4565b820191906000526020600020905b8154815290600101906020018083116109d757829003601f168201915b50505050508152602001600582018054610a0d90614393565b80601f0160208091040260200160405190810160405280929190818152602001828054610a3990614393565b8015610a865780601f10610a5b57610100808354040283529160200191610a86565b820191906000526020600020905b815481529060010190602001808311610a6957829003601f168201915b50505050508152602001600682015481526020016007820154815250508152602001600b8201548152602001600c8201548152505090506001600260008673ffffffffffffffffffffffffffffffffffffffff1673ffffffffffffffffffffffffffffffffffffffff1681526020019081526020016000208481548110610b1057610b0f6142e2565b5b90600052602060002090600d0201600b0181905550600160036000836040015173ffffffffffffffffffffffffffffffffffffffff1673ffffffffffffffffffffffffffffffffffffffff1681526020019081526020016000208260a0015181548110610b8057610b7f6142e2565b5b906000526020600020906002020160010181905550604051602001610ba4906143ea565b60405160208183030381529060405280519060200120816060015160000151604051602001610bd3919061434d565b6040516020818303038152906040528051906020012014610c4b5780606001516000015160016000836040015173ffffffffffffffffffffffffffffffffffffffff1673ffffffffffffffffffffffffffffffffffffffff1681526020019081526020016000206000019081610c4991906145ab565b505b604051602001610c5a906143ea565b60405160208183030381529060405280519060200120816060015160200151604051602001610c89919061434d565b6040516020818303038152906040528051906020012014610d015780606001516020015160016000836040015173ffffffffffffffffffffffffffffffffffffffff1673ffffffffffffffffffffffffffffffffffffffff1681526020019081526020016000206001019081610cff91906145ab565b505b604051602001610d10906143ea565b60405160208183030381529060405280519060200120816060015160400151604051602001610d3f919061434d565b6040516020818303038152906040528051906020012014610db75780606001516040015160016000836040015173ffffffffffffffffffffffffffffffffffffffff1673ffffffffffffffffffffffffffffffffffffffff1681526020019081526020016000206002019081610db591906145ab565b505b600081606001516060015114610e1b5780606001516060015160016000836040015173ffffffffffffffffffffffffffffffffffffffff1673ffffffffffffffffffffffffffffffffffffffff168152602001908152602001600020600301819055505b604051602001610e2a906143ea565b60405160208183030381529060405280519060200120816060015160800151604051602001610e59919061434d565b6040516020818303038152906040528051906020012014610ed15780606001516080015160016000836040015173ffffffffffffffffffffffffffffffffffffffff1673ffffffffffffffffffffffffffffffffffffffff1681526020019081526020016000206004019081610ecf91906145ab565b505b604051602001610ee0906143ea565b60405160208183030381529060405280519060200120816060015160a00151604051602001610f0f919061434d565b6040516020818303038152906040528051906020012014610f8757806060015160a0015160016000836040015173ffffffffffffffffffffffffffffffffffffffff1673ffffffffffffffffffffffffffffffffffffffff1681526020019081526020016000206005019081610f8591906145ab565b505b6000816060015160c0015114610feb57806060015160c0015160016000836040015173ffffffffffffffffffffffffffffffffffffffff1673ffffffffffffffffffffffffffffffffffffffff168152602001908152602001600020600601819055505b6000816060015160e001511461104f57806060015160e0015160016000836040015173ffffffffffffffffffffffffffffffffffffffff1673ffffffffffffffffffffffffffffffffffffffff168152602001908152602001600020600701819055505b50611619565b6000600260008573ffffffffffffffffffffffffffffffffffffffff1673ffffffffffffffffffffffffffffffffffffffff16815260200190815260200160002083815481106110a8576110a76142e2565b5b90600052602060002090600d02016040518060c00160405290816000820180546110d190614393565b80601f01602080910402602001604051908101604052809291908181526020018280546110fd90614393565b801561114a5780601f1061111f5761010080835404028352916020019161114a565b820191906000526020600020905b81548152906001019060200180831161112d57829003601f168201915b5050505050815260200160018201805461116390614393565b80601f016020809104026020016040519081016040528092919081815260200182805461118f90614393565b80156111dc5780601f106111b1576101008083540402835291602001916111dc565b820191906000526020600020905b8154815290600101906020018083116111bf57829003601f168201915b505050505081526020016002820160009054906101000a900473ffffffffffffffffffffffffffffffffffffffff1673ffffffffffffffffffffffffffffffffffffffff1673ffffffffffffffffffffffffffffffffffffffff168152602001600382016040518061010001604052908160008201805461125c90614393565b80601f016020809104026020016040519081016040528092919081815260200182805461128890614393565b80156112d55780601f106112aa576101008083540402835291602001916112d5565b820191906000526020600020905b8154815290600101906020018083116112b857829003601f168201915b505050505081526020016001820180546112ee90614393565b80601f016020809104026020016040519081016040528092919081815260200182805461131a90614393565b80156113675780601f1061133c57610100808354040283529160200191611367565b820191906000526020600020905b81548152906001019060200180831161134a57829003601f168201915b5050505050815260200160028201805461138090614393565b80601f01602080910402602001604051908101604052809291908181526020018280546113ac90614393565b80156113f95780601f106113ce576101008083540402835291602001916113f9565b820191906000526020600020905b8154815290600101906020018083116113dc57829003601f168201915b505050505081526020016003820154815260200160048201805461141c90614393565b80601f016020809104026020016040519081016040528092919081815260200182805461144890614393565b80156114955780601f1061146a57610100808354040283529160200191611495565b820191906000526020600020905b81548152906001019060200180831161147857829003601f168201915b505050505081526020016005820180546114ae90614393565b80601f01602080910402602001604051908101604052809291908181526020018280546114da90614393565b80156115275780601f106114fc57610100808354040283529160200191611527565b820191906000526020600020905b81548152906001019060200180831161150a57829003601f168201915b50505050508152602001600682015481526020016007820154815250508152602001600b8201548152602001600c8201548152505090507fffffffffffffffffffffffffffffffffffffffffffffffffffffffffffffffff8160800181815250507fffffffffffffffffffffffffffffffffffffffffffffffffffffffffffffffff60036000836040015173ffffffffffffffffffffffffffffffffffffffff1673ffffffffffffffffffffffffffffffffffffffff1681526020019081526020016000208260a0015181548110611602576116016142e2565b5b906000526020600020906002020160010181905550505b505050565b60608060606000606080600080600160003373ffffffffffffffffffffffffffffffffffffffff1673ffffffffffffffffffffffffffffffffffffffff168152602001908152602001600020600001600160003373ffffffffffffffffffffffffffffffffffffffff1673ffffffffffffffffffffffffffffffffffffffff168152602001908152602001600020600101600160003373ffffffffffffffffffffffffffffffffffffffff1673ffffffffffffffffffffffffffffffffffffffff168152602001908152602001600020600201600160003373ffffffffffffffffffffffffffffffffffffffff1673ffffffffffffffffffffffffffffffffffffffff16815260200190815260200160002060030154600160003373ffffffffffffffffffffffffffffffffffffffff1673ffffffffffffffffffffffffffffffffffffffff168152602001908152602001600020600401600160003373ffffffffffffffffffffffffffffffffffffffff1673ffffffffffffffffffffffffffffffffffffffff168152602001908152602001600020600501600160003373ffffffffffffffffffffffffffffffffffffffff1673ffffffffffffffffffffffffffffffffffffffff16815260200190815260200160002060060154600160003373ffffffffffffffffffffffffffffffffffffffff1673ffffffffffffffffffffffffffffffffffffffff1681526020019081526020016000206007015487805461184a90614393565b80601f016020809104026020016040519081016040528092919081815260200182805461187690614393565b80156118c35780601f10611898576101008083540402835291602001916118c3565b820191906000526020600020905b8154815290600101906020018083116118a657829003601f168201915b505050505097508680546118d690614393565b80601f016020809104026020016040519081016040528092919081815260200182805461190290614393565b801561194f5780601f106119245761010080835404028352916020019161194f565b820191906000526020600020905b81548152906001019060200180831161193257829003601f168201915b5050505050965085805461196290614393565b80601f016020809104026020016040519081016040528092919081815260200182805461198e90614393565b80156119db5780601f106119b0576101008083540402835291602001916119db565b820191906000526020600020905b8154815290600101906020018083116119be57829003601f168201915b505050505095508380546119ee90614393565b80601f0160208091040260200160405190810160405280929190818152602001828054611a1a90614393565b8015611a675780601f10611a3c57610100808354040283529160200191611a67565b820191906000526020600020905b815481529060010190602001808311611a4a57829003601f168201915b50505050509350828054611a7a90614393565b80601f0160208091040260200160405190810160405280929190818152602001828054611aa690614393565b8015611af35780601f10611ac857610100808354040283529160200191611af3565b820191906000526020600020905b815481529060010190602001808311611ad657829003601f168201915b50505050509250975097509750975097509750975097509091929394959697565b6000600260003373ffffffffffffffffffffffffffffffffffffffff1673ffffffffffffffffffffffffffffffffffffffff16815260200190815260200160002080549050905090565b6060600582604051611b70919061434d565b90815260200160405180910390208054611b8990614393565b80601f0160208091040260200160405190810160405280929190818152602001828054611bb590614393565b8015611c025780601f10611bd757610100808354040283529160200191611c02565b820191906000526020600020905b815481529060010190602001808311611be557829003601f168201915b50505050509050919050565b6000600360003373ffffffffffffffffffffffffffffffffffffffff1673ffffffffffffffffffffffffffffffffffffffff16815260200190815260200160002080549050905090565b6060806000806000600260003373ffffffffffffffffffffffffffffffffffffffff1673ffffffffffffffffffffffffffffffffffffffff1681526020019081526020016000208681548110611cb157611cb06142e2565b5b90600052602060002090600d0201600001600260003373ffffffffffffffffffffffffffffffffffffffff1673ffffffffffffffffffffffffffffffffffffffff1681526020019081526020016000208781548110611d1357611d126142e2565b5b90600052602060002090600d0201600101600260003373ffffffffffffffffffffffffffffffffffffffff1673ffffffffffffffffffffffffffffffffffffffff1681526020019081526020016000208881548110611d7557611d746142e2565b5b90600052602060002090600d020160020160009054906101000a900473ffffffffffffffffffffffffffffffffffffffff16600260003373ffffffffffffffffffffffffffffffffffffffff1673ffffffffffffffffffffffffffffffffffffffff1681526020019081526020016000208981548110611df857611df76142e2565b5b90600052602060002090600d0201600b0154600260003373ffffffffffffffffffffffffffffffffffffffff1673ffffffffffffffffffffffffffffffffffffffff1681526020019081526020016000208a81548110611e5b57611e5a6142e2565b5b90600052602060002090600d0201600c0154848054611e7990614393565b80601f0160208091040260200160405190810160405280929190818152602001828054611ea590614393565b8015611ef25780601f10611ec757610100808354040283529160200191611ef2565b820191906000526020600020905b815481529060010190602001808311611ed557829003601f168201915b50505050509450838054611f0590614393565b80601f0160208091040260200160405190810160405280929190818152602001828054611f3190614393565b8015611f7e5780601f10611f5357610100808354040283529160200191611f7e565b820191906000526020600020905b815481529060010190602001808311611f6157829003601f168201915b505050505093509450945094509450945091939590929450565b600260008c73ffffffffffffffffffffffffffffffffffffffff1673ffffffffffffffffffffffffffffffffffffffff1681526020019081526020016000206040518060c001604052808c81526020018b81526020013373ffffffffffffffffffffffffffffffffffffffff1681526020016040518061010001604052808c81526020018b81526020018a815260200189815260200188815260200187815260200186815260200185815250815260200160008152602001600360003373ffffffffffffffffffffffffffffffffffffffff1673ffffffffffffffffffffffffffffffffffffffff1681526020019081526020016000208054905081525090806001815401808255809150506001900390600052602060002090600d020160009091909190915060008201518160000190816120d491906145ab565b5060208201518160010190816120ea91906145ab565b5060408201518160020160006101000a81548173ffffffffffffffffffffffffffffffffffffffff021916908373ffffffffffffffffffffffffffffffffffffffff160217905550606082015181600301600082015181600001908161215091906145ab565b50602082015181600101908161216691906145ab565b50604082015181600201908161217c91906145ab565b5060608201518160030155608082015181600401908161219c91906145ab565b5060a08201518160050190816121b291906145ab565b5060c0820151816006015560e082015181600701555050608082015181600b015560a082015181600c01555050600360003373ffffffffffffffffffffffffffffffffffffffff1673ffffffffffffffffffffffffffffffffffffffff16815260200190815260200160002060405180604001604052808d73ffffffffffffffffffffffffffffffffffffffff1681526020016000815250908060018154018082558091505060019003906000526020600020906002020160009091909190915060008201518160000160006101000a81548173ffffffffffffffffffffffffffffffffffffffff021916908373ffffffffffffffffffffffffffffffffffffffff1602179055506020820151816001015550505050505050505050505050565b600080600460008473ffffffffffffffffffffffffffffffffffffffff1673ffffffffffffffffffffffffffffffffffffffff16815260200190815260200160002060003373ffffffffffffffffffffffffffffffffffffffff1673ffffffffffffffffffffffffffffffffffffffff16815260200190815260200160002060060154600460008573ffffffffffffffffffffffffffffffffffffffff1673ffffffffffffffffffffffffffffffffffffffff16815260200190815260200160002060003373ffffffffffffffffffffffffffffffffffffffff1673ffffffffffffffffffffffffffffffffffffffff1681526020019081526020016000206007015491509150915091565b87156124b857600160003373ffffffffffffffffffffffffffffffffffffffff1673ffffffffffffffffffffffffffffffffffffffff168152602001908152602001600020600001600460003373ffffffffffffffffffffffffffffffffffffffff1673ffffffffffffffffffffffffffffffffffffffff16815260200190815260200160002060008b73ffffffffffffffffffffffffffffffffffffffff1673ffffffffffffffffffffffffffffffffffffffff16815260200190815260200160002060000190816124b291906146a8565b50612555565b60405180602001604052806000815250600460003373ffffffffffffffffffffffffffffffffffffffff1673ffffffffffffffffffffffffffffffffffffffff16815260200190815260200160002060008b73ffffffffffffffffffffffffffffffffffffffff1673ffffffffffffffffffffffffffffffffffffffff168152602001908152602001600020600001908161255391906145ab565b505b861561262e57600160003373ffffffffffffffffffffffffffffffffffffffff1673ffffffffffffffffffffffffffffffffffffffff168152602001908152602001600020600101600460003373ffffffffffffffffffffffffffffffffffffffff1673ffffffffffffffffffffffffffffffffffffffff16815260200190815260200160002060008b73ffffffffffffffffffffffffffffffffffffffff1673ffffffffffffffffffffffffffffffffffffffff168152602001908152602001600020600101908161262891906146a8565b506126cb565b60405180602001604052806000815250600460003373ffffffffffffffffffffffffffffffffffffffff1673ffffffffffffffffffffffffffffffffffffffff16815260200190815260200160002060008b73ffffffffffffffffffffffffffffffffffffffff1673ffffffffffffffffffffffffffffffffffffffff16815260200190815260200160002060010190816126c991906145ab565b505b85156127a457600160003373ffffffffffffffffffffffffffffffffffffffff1673ffffffffffffffffffffffffffffffffffffffff168152602001908152602001600020600201600460003373ffffffffffffffffffffffffffffffffffffffff1673ffffffffffffffffffffffffffffffffffffffff16815260200190815260200160002060008b73ffffffffffffffffffffffffffffffffffffffff1673ffffffffffffffffffffffffffffffffffffffff168152602001908152602001600020600201908161279e91906146a8565b50612841565b60405180602001604052806000815250600460003373ffffffffffffffffffffffffffffffffffffffff1673ffffffffffffffffffffffffffffffffffffffff16815260200190815260200160002060008b73ffffffffffffffffffffffffffffffffffffffff1673ffffffffffffffffffffffffffffffffffffffff168152602001908152602001600020600201908161283f91906145ab565b505b841561291257600160003373ffffffffffffffffffffffffffffffffffffffff1673ffffffffffffffffffffffffffffffffffffffff16815260200190815260200160002060030154600460003373ffffffffffffffffffffffffffffffffffffffff1673ffffffffffffffffffffffffffffffffffffffff16815260200190815260200160002060008b73ffffffffffffffffffffffffffffffffffffffff1673ffffffffffffffffffffffffffffffffffffffff16815260200190815260200160002060030181905550612998565b6000600460003373ffffffffffffffffffffffffffffffffffffffff1673ffffffffffffffffffffffffffffffffffffffff16815260200190815260200160002060008b73ffffffffffffffffffffffffffffffffffffffff1673ffffffffffffffffffffffffffffffffffffffff168152602001908152602001600020600301819055505b8315612a7157600160003373ffffffffffffffffffffffffffffffffffffffff1673ffffffffffffffffffffffffffffffffffffffff168152602001908152602001600020600401600460003373ffffffffffffffffffffffffffffffffffffffff1673ffffffffffffffffffffffffffffffffffffffff16815260200190815260200160002060008b73ffffffffffffffffffffffffffffffffffffffff1673ffffffffffffffffffffffffffffffffffffffff1681526020019081526020016000206004019081612a6b91906146a8565b50612b0e565b60405180602001604052806000815250600460003373ffffffffffffffffffffffffffffffffffffffff1673ffffffffffffffffffffffffffffffffffffffff16815260200190815260200160002060008b73ffffffffffffffffffffffffffffffffffffffff1673ffffffffffffffffffffffffffffffffffffffff1681526020019081526020016000206004019081612b0c91906145ab565b505b8215612be757600160003373ffffffffffffffffffffffffffffffffffffffff1673ffffffffffffffffffffffffffffffffffffffff168152602001908152602001600020600501600460003373ffffffffffffffffffffffffffffffffffffffff1673ffffffffffffffffffffffffffffffffffffffff16815260200190815260200160002060008b73ffffffffffffffffffffffffffffffffffffffff1673ffffffffffffffffffffffffffffffffffffffff1681526020019081526020016000206005019081612be191906146a8565b50612c84565b60405180602001604052806000815250600460003373ffffffffffffffffffffffffffffffffffffffff1673ffffffffffffffffffffffffffffffffffffffff16815260200190815260200160002060008b73ffffffffffffffffffffffffffffffffffffffff1673ffffffffffffffffffffffffffffffffffffffff1681526020019081526020016000206005019081612c8291906145ab565b505b8115612d5557600160003373ffffffffffffffffffffffffffffffffffffffff1673ffffffffffffffffffffffffffffffffffffffff16815260200190815260200160002060060154600460003373ffffffffffffffffffffffffffffffffffffffff1673ffffffffffffffffffffffffffffffffffffffff16815260200190815260200160002060008b73ffffffffffffffffffffffffffffffffffffffff1673ffffffffffffffffffffffffffffffffffffffff16815260200190815260200160002060060181905550612ddb565b6000600460003373ffffffffffffffffffffffffffffffffffffffff1673ffffffffffffffffffffffffffffffffffffffff16815260200190815260200160002060008b73ffffffffffffffffffffffffffffffffffffffff1673ffffffffffffffffffffffffffffffffffffffff168152602001908152602001600020600601819055505b8015612eac57600160003373ffffffffffffffffffffffffffffffffffffffff1673ffffffffffffffffffffffffffffffffffffffff16815260200190815260200160002060070154600460003373ffffffffffffffffffffffffffffffffffffffff1673ffffffffffffffffffffffffffffffffffffffff16815260200190815260200160002060008b73ffffffffffffffffffffffffffffffffffffffff1673ffffffffffffffffffffffffffffffffffffffff16815260200190815260200160002060070181905550612f32565b6000600460003373ffffffffffffffffffffffffffffffffffffffff1673ffffffffffffffffffffffffffffffffffffffff16815260200190815260200160002060008b73ffffffffffffffffffffffffffffffffffffffff1673ffffffffffffffffffffffffffffffffffffffff168152602001908152602001600020600701819055505b505050505050505050565b60608060606000606080600460008873ffffffffffffffffffffffffffffffffffffffff1673ffffffffffffffffffffffffffffffffffffffff16815260200190815260200160002060003373ffffffffffffffffffffffffffffffffffffffff1673ffffffffffffffffffffffffffffffffffffffff168152602001908152602001600020600001600460008973ffffffffffffffffffffffffffffffffffffffff1673ffffffffffffffffffffffffffffffffffffffff16815260200190815260200160002060003373ffffffffffffffffffffffffffffffffffffffff1673ffffffffffffffffffffffffffffffffffffffff168152602001908152602001600020600101600460008a73ffffffffffffffffffffffffffffffffffffffff1673ffffffffffffffffffffffffffffffffffffffff16815260200190815260200160002060003373ffffffffffffffffffffffffffffffffffffffff1673ffffffffffffffffffffffffffffffffffffffff168152602001908152602001600020600201600460008b73ffffffffffffffffffffffffffffffffffffffff1673ffffffffffffffffffffffffffffffffffffffff16815260200190815260200160002060003373ffffffffffffffffffffffffffffffffffffffff1673ffffffffffffffffffffffffffffffffffffffff16815260200190815260200160002060030154600460008c73ffffffffffffffffffffffffffffffffffffffff1673ffffffffffffffffffffffffffffffffffffffff16815260200190815260200160002060003373ffffffffffffffffffffffffffffffffffffffff1673ffffffffffffffffffffffffffffffffffffffff168152602001908152602001600020600401600460008d73ffffffffffffffffffffffffffffffffffffffff1673ffffffffffffffffffffffffffffffffffffffff16815260200190815260200160002060003373ffffffffffffffffffffffffffffffffffffffff1673ffffffffffffffffffffffffffffffffffffffff16815260200190815260200160002060050185805461324e90614393565b80601f016020809104026020016040519081016040528092919081815260200182805461327a90614393565b80156132c75780601f1061329c576101008083540402835291602001916132c7565b820191906000526020600020905b8154815290600101906020018083116132aa57829003601f168201915b505050505095508480546132da90614393565b80601f016020809104026020016040519081016040528092919081815260200182805461330690614393565b80156133535780601f1061332857610100808354040283529160200191613353565b820191906000526020600020905b81548152906001019060200180831161333657829003601f168201915b5050505050945083805461336690614393565b80601f016020809104026020016040519081016040528092919081815260200182805461339290614393565b80156133df5780601f106133b4576101008083540402835291602001916133df565b820191906000526020600020905b8154815290600101906020018083116133c257829003601f168201915b505050505093508180546133f290614393565b80601f016020809104026020016040519081016040528092919081815260200182805461341e90614393565b801561346b5780601f106134405761010080835404028352916020019161346b565b820191906000526020600020905b81548152906001019060200180831161344e57829003601f168201915b5050505050915080805461347e90614393565b80601f01602080910402602001604051908101604052809291908181526020018280546134aa90614393565b80156134f75780601f106134cc576101008083540402835291602001916134f7565b820191906000526020600020905b8154815290600101906020018083116134da57829003601f168201915b5050505050905095509550955095509550955091939550919395565b60608060606000606080600260003373ffffffffffffffffffffffffffffffffffffffff1673ffffffffffffffffffffffffffffffffffffffff168152602001908152602001600020878154811061356e5761356d6142e2565b5b90600052602060002090600d0201600301600001600260003373ffffffffffffffffffffffffffffffffffffffff1673ffffffffffffffffffffffffffffffffffffffff16815260200190815260200160002088815481106135d3576135d26142e2565b5b90600052602060002090600d0201600301600101600260003373ffffffffffffffffffffffffffffffffffffffff1673ffffffffffffffffffffffffffffffffffffffff1681526020019081526020016000208981548110613638576136376142e2565b5b90600052602060002090600d0201600301600201600260003373ffffffffffffffffffffffffffffffffffffffff1673ffffffffffffffffffffffffffffffffffffffff1681526020019081526020016000208a8154811061369d5761369c6142e2565b5b90600052602060002090600d020160030160030154600260003373ffffffffffffffffffffffffffffffffffffffff1673ffffffffffffffffffffffffffffffffffffffff1681526020019081526020016000208b81548110613703576137026142e2565b5b90600052602060002090600d0201600301600401600260003373ffffffffffffffffffffffffffffffffffffffff1673ffffffffffffffffffffffffffffffffffffffff1681526020019081526020016000208c81548110613768576137676142e2565b5b90600052602060002090600d020160030160050185805461378890614393565b80601f01602080910402602001604051908101604052809291908181526020018280546137b490614393565b80156138015780601f106137d657610100808354040283529160200191613801565b820191906000526020600020905b8154815290600101906020018083116137e457829003601f168201915b5050505050955084805461381490614393565b80601f016020809104026020016040519081016040528092919081815260200182805461384090614393565b801561388d5780601f106138625761010080835404028352916020019161388d565b820191906000526020600020905b81548152906001019060200180831161387057829003601f168201915b505050505094508380546138a090614393565b80601f01602080910402602001604051908101604052809291908181526020018280546138cc90614393565b80156139195780601f106138ee57610100808354040283529160200191613919565b820191906000526020600020905b8154815290600101906020018083116138fc57829003601f168201915b5050505050935081805461392c90614393565b80601f016020809104026020016040519081016040528092919081815260200182805461395890614393565b80156139a55780601f1061397a576101008083540402835291602001916139a5565b820191906000526020600020905b81548152906001019060200180831161398857829003601f168201915b505050505091508080546139b890614393565b80601f01602080910402602001604051908101604052809291908181526020018280546139e490614393565b8015613a315780601f10613a0657610100808354040283529160200191613a31565b820191906000526020600020905b815481529060010190602001808311613a1457829003601f168201915b5050505050905095509550955095509550955091939550919395565b6000604051905090565b600080fd5b600080fd5b6000819050919050565b613a7481613a61565b8114613a7f57600080fd5b50565b600081359050613a9181613a6b565b92915050565b600060208284031215613aad57613aac613a57565b5b6000613abb84828501613a82565b91505092915050565b6000819050919050565b613ad781613ac4565b82525050565b6000604082019050613af26000830185613ace565b613aff6020830184613ace565b9392505050565b600073ffffffffffffffffffffffffffffffffffffffff82169050919050565b6000613b3182613b06565b9050919050565b613b4181613b26565b82525050565b6000604082019050613b5c6000830185613b38565b613b696020830184613ace565b9392505050565b600080fd5b600080fd5b6000601f19601f8301169050919050565b7f4e487b7100000000000000000000000000000000000000000000000000000000600052604160045260246000fd5b613bc382613b7a565b810181811067ffffffffffffffff82111715613be257613be1613b8b565b5b80604052505050565b6000613bf5613a4d565b9050613c018282613bba565b919050565b600067ffffffffffffffff821115613c2157613c20613b8b565b5b613c2a82613b7a565b9050602081019050919050565b82818337600083830152505050565b6000613c59613c5484613c06565b613beb565b905082815260208101848484011115613c7557613c74613b75565b5b613c80848285613c37565b509392505050565b600082601f830112613c9d57613c9c613b70565b5b8135613cad848260208601613c46565b91505092915050565b600060208284031215613ccc57613ccb613a57565b5b600082013567ffffffffffffffff811115613cea57613ce9613a5c565b5b613cf684828501613c88565b91505092915050565b600081519050919050565b600082825260208201905092915050565b60005b83811015613d39578082015181840152602081019050613d1e565b60008484015250505050565b6000613d5082613cff565b613d5a8185613d0a565b9350613d6a818560208601613d1b565b613d7381613b7a565b840191505092915050565b60006020820190508181036000830152613d988184613d45565b905092915050565b613da981613b26565b8114613db457600080fd5b50565b600081359050613dc681613da0565b92915050565b60008115159050919050565b613de181613dcc565b8114613dec57600080fd5b50565b600081359050613dfe81613dd8565b92915050565b600080600060608486031215613e1d57613e1c613a57565b5b6000613e2b86828701613db7565b9350506020613e3c86828701613a82565b9250506040613e4d86828701613def565b9150509250925092565b613e6081613a61565b82525050565b6000610100820190508181036000830152613e81818b613d45565b90508181036020830152613e95818a613d45565b90508181036040830152613ea98189613d45565b9050613eb86060830188613e57565b8181036080830152613eca8187613d45565b905081810360a0830152613ede8186613d45565b9050613eed60c0830185613ace565b613efa60e0830184613ace565b9998505050505050505050565b6000602082019050613f1c6000830184613e57565b92915050565b600060a0820190508181036000830152613f3c8188613d45565b90508181036020830152613f508187613d45565b9050613f5f6040830186613b38565b613f6c6060830185613ace565b613f796080830184613e57565b9695505050505050565b613f8c81613ac4565b8114613f9757600080fd5b50565b600081359050613fa981613f83565b92915050565b60008060008060008060008060008060006101608c8e031215613fd557613fd4613a57565b5b6000613fe38e828f01613db7565b9b505060208c013567ffffffffffffffff81111561400457614003613a5c565b5b6140108e828f01613c88565b9a505060408c013567ffffffffffffffff81111561403157614030613a5c565b5b61403d8e828f01613c88565b99505060608c013567ffffffffffffffff81111561405e5761405d613a5c565b5b61406a8e828f01613c88565b98505060808c013567ffffffffffffffff81111561408b5761408a613a5c565b5b6140978e828f01613c88565b97505060a08c013567ffffffffffffffff8111156140b8576140b7613a5c565b5b6140c48e828f01613c88565b96505060c06140d58e828f01613a82565b95505060e08c013567ffffffffffffffff8111156140f6576140f5613a5c565b5b6141028e828f01613c88565b9450506101008c013567ffffffffffffffff81111561412457614123613a5c565b5b6141308e828f01613c88565b9350506101206141428e828f01613f9a565b9250506101406141548e828f01613f9a565b9150509295989b509295989b9093969950565b60006020828403121561417d5761417c613a57565b5b600061418b84828501613db7565b91505092915050565b60008060008060008060008060006101208a8c0312156141b7576141b6613a57565b5b60006141c58c828d01613db7565b99505060206141d68c828d01613def565b98505060406141e78c828d01613def565b97505060606141f88c828d01613def565b96505060806142098c828d01613def565b95505060a061421a8c828d01613def565b94505060c061422b8c828d01613def565b93505060e061423c8c828d01613def565b92505061010061424e8c828d01613def565b9150509295985092959850929598565b600060c08201905081810360008301526142788189613d45565b9050818103602083015261428c8188613d45565b905081810360408301526142a08187613d45565b90506142af6060830186613e57565b81810360808301526142c18185613d45565b905081810360a08301526142d58184613d45565b9050979650505050505050565b7f4e487b7100000000000000000000000000000000000000000000000000000000600052603260045260246000fd5b600081905092915050565b600061432782613cff565b6143318185614311565b9350614341818560208601613d1b565b80840191505092915050565b6000614359828461431c565b915081905092915050565b7f4e487b7100000000000000000000000000000000000000000000000000000000600052602260045260246000fd5b600060028204905060018216806143ab57607f821691505b6020821081036143be576143bd614364565b5b50919050565b50565b60006143d4600083614311565b91506143df826143c4565b600082019050919050565b60006143f5826143c7565b9150819050919050565b60008190508160005260206000209050919050565b60006020601f8301049050919050565b600082821b905092915050565b6000600883026144617fffffffffffffffffffffffffffffffffffffffffffffffffffffffffffffffff82614424565b61446b8683614424565b95508019841693508086168417925050509392505050565b6000819050919050565b60006144a86144a361449e84613a61565b614483565b613a61565b9050919050565b6000819050919050565b6144c28361448d565b6144d66144ce826144af565b848454614431565b825550505050565b600090565b6144eb6144de565b6144f68184846144b9565b505050565b5b8181101561451a5761450f6000826144e3565b6001810190506144fc565b5050565b601f82111561455f57614530816143ff565b61453984614414565b81016020851015614548578190505b61455c61455485614414565b8301826144fb565b50505b505050565b600082821c905092915050565b600061458260001984600802614564565b1980831691505092915050565b600061459b8383614571565b9150826002028217905092915050565b6145b482613cff565b67ffffffffffffffff8111156145cd576145cc613b8b565b5b6145d78254614393565b6145e282828561451e565b600060209050601f8311600181146146155760008415614603578287015190505b61460d858261458f565b865550614675565b601f198416614623866143ff565b60005b8281101561464b57848901518255600182019150602085019450602081019050614626565b868310156146685784890151614664601f891682614571565b8355505b6001600288020188555050505b505050505050565b60008154905061468c81614393565b9050919050565b60008190508160005260206000209050919050565b8181036146b657505061478e565b6146bf8261467d565b67ffffffffffffffff8111156146d8576146d7613b8b565b5b6146e28254614393565b6146ed82828561451e565b6000601f83116001811461471c576000841561470a578287015490505b614714858261458f565b865550614787565b601f19841661472a87614693565b9650614735866143ff565b60005b8281101561475d57848901548255600182019150600185019450602081019050614738565b8683101561477a5784890154614776601f891682614571565b8355505b6001600288020188555050505b5050505050505b56fea2646970667358221220d4c7253058d24b4409f5ee70f58e3a7874eacb38db37d0f9238d4819696dda3f64736f6c634300081c0033307866346239343939393137343064653463303930383531303539656266396439383566623436626233307832373531306432376230423563386338313341383933373236446345414236613933333334356461307862396637326566346330663064333036613662313265336438363962653163386131323666306165",
  "linkReferences": {},
  "deployedLinkReferences": {}
}